{
    "_format": "hh-sol-artifact-1",
    "contractName": "EgoToken",
    "sourceName": "contracts/EgoToken.sol",
    "abi": [
        {
            "inputs": [],
            "stateMutability": "nonpayable",
            "type": "constructor"
        },
        {
            "anonymous": false,
            "inputs": [
                {
                    "indexed": true,
                    "internalType": "address",
                    "name": "owner",
                    "type": "address"
                },
                {
                    "indexed": true,
                    "internalType": "address",
                    "name": "approved",
                    "type": "address"
                },
                {
                    "indexed": true,
                    "internalType": "uint256",
                    "name": "tokenId",
                    "type": "uint256"
                }
            ],
            "name": "Approval",
            "type": "event"
        },
        {
            "anonymous": false,
            "inputs": [
                {
                    "indexed": true,
                    "internalType": "address",
                    "name": "owner",
                    "type": "address"
                },
                {
                    "indexed": true,
                    "internalType": "address",
                    "name": "operator",
                    "type": "address"
                },
                {
                    "indexed": false,
                    "internalType": "bool",
                    "name": "approved",
                    "type": "bool"
                }
            ],
            "name": "ApprovalForAll",
            "type": "event"
        },
        {
            "anonymous": false,
            "inputs": [
                {
                    "indexed": true,
                    "internalType": "address",
                    "name": "previousOwner",
                    "type": "address"
                },
                {
                    "indexed": true,
                    "internalType": "address",
                    "name": "newOwner",
                    "type": "address"
                }
            ],
            "name": "OwnershipTransferred",
            "type": "event"
        },
        {
            "anonymous": false,
            "inputs": [
                {
                    "indexed": true,
                    "internalType": "address",
                    "name": "from",
                    "type": "address"
                },
                {
                    "indexed": true,
                    "internalType": "address",
                    "name": "to",
                    "type": "address"
                },
                {
                    "indexed": true,
                    "internalType": "uint256",
                    "name": "tokenId",
                    "type": "uint256"
                }
            ],
            "name": "Transfer",
            "type": "event"
        },
        {
            "inputs": [
                {
                    "internalType": "address",
                    "name": "to",
                    "type": "address"
                },
                {
                    "internalType": "uint256",
                    "name": "tokenId",
                    "type": "uint256"
                }
            ],
            "name": "approve",
            "outputs": [],
            "stateMutability": "nonpayable",
            "type": "function"
        },
        {
            "inputs": [
                {
                    "internalType": "address",
                    "name": "owner",
                    "type": "address"
                }
            ],
            "name": "balanceOf",
            "outputs": [
                {
                    "internalType": "uint256",
                    "name": "",
                    "type": "uint256"
                }
            ],
            "stateMutability": "view",
            "type": "function"
        },
        {
            "inputs": [
                {
                    "internalType": "uint256",
                    "name": "tokenId",
                    "type": "uint256"
                }
            ],
            "name": "getApproved",
            "outputs": [
                {
                    "internalType": "address",
                    "name": "",
                    "type": "address"
                }
            ],
            "stateMutability": "view",
            "type": "function"
        },
        {
            "inputs": [
                {
                    "internalType": "address",
                    "name": "owner",
                    "type": "address"
                },
                {
                    "internalType": "address",
                    "name": "operator",
                    "type": "address"
                }
            ],
            "name": "isApprovedForAll",
            "outputs": [
                {
                    "internalType": "bool",
                    "name": "",
                    "type": "bool"
                }
            ],
            "stateMutability": "view",
            "type": "function"
        },
        {
            "inputs": [],
            "name": "name",
            "outputs": [
                {
                    "internalType": "string",
                    "name": "",
                    "type": "string"
                }
            ],
            "stateMutability": "view",
            "type": "function"
        },
        {
            "inputs": [],
            "name": "owner",
            "outputs": [
                {
                    "internalType": "address",
                    "name": "",
                    "type": "address"
                }
            ],
            "stateMutability": "view",
            "type": "function"
        },
        {
            "inputs": [
                {
                    "internalType": "uint256",
                    "name": "tokenId",
                    "type": "uint256"
                }
            ],
            "name": "ownerOf",
            "outputs": [
                {
                    "internalType": "address",
                    "name": "",
                    "type": "address"
                }
            ],
            "stateMutability": "view",
            "type": "function"
        },
        {
            "inputs": [],
            "name": "renounceOwnership",
            "outputs": [],
            "stateMutability": "nonpayable",
            "type": "function"
        },
        {
            "inputs": [
                {
                    "internalType": "string",
                    "name": "uri",
                    "type": "string"
                }
            ],
            "name": "safeMint",
            "outputs": [],
            "stateMutability": "nonpayable",
            "type": "function"
        },
        {
            "inputs": [
                {
                    "internalType": "address",
                    "name": "from",
                    "type": "address"
                },
                {
                    "internalType": "address",
                    "name": "to",
                    "type": "address"
                },
                {
                    "internalType": "uint256",
                    "name": "tokenId",
                    "type": "uint256"
                }
            ],
            "name": "safeTransferFrom",
            "outputs": [],
            "stateMutability": "nonpayable",
            "type": "function"
        },
        {
            "inputs": [
                {
                    "internalType": "address",
                    "name": "from",
                    "type": "address"
                },
                {
                    "internalType": "address",
                    "name": "to",
                    "type": "address"
                },
                {
                    "internalType": "uint256",
                    "name": "tokenId",
                    "type": "uint256"
                },
                {
                    "internalType": "bytes",
                    "name": "data",
                    "type": "bytes"
                }
            ],
            "name": "safeTransferFrom",
            "outputs": [],
            "stateMutability": "nonpayable",
            "type": "function"
        },
        {
            "inputs": [
                {
                    "internalType": "address",
                    "name": "operator",
                    "type": "address"
                },
                {
                    "internalType": "bool",
                    "name": "approved",
                    "type": "bool"
                }
            ],
            "name": "setApprovalForAll",
            "outputs": [],
            "stateMutability": "nonpayable",
            "type": "function"
        },
        {
            "inputs": [
                {
                    "internalType": "bytes4",
                    "name": "interfaceId",
                    "type": "bytes4"
                }
            ],
            "name": "supportsInterface",
            "outputs": [
                {
                    "internalType": "bool",
                    "name": "",
                    "type": "bool"
                }
            ],
            "stateMutability": "view",
            "type": "function"
        },
        {
            "inputs": [],
            "name": "symbol",
            "outputs": [
                {
                    "internalType": "string",
                    "name": "",
                    "type": "string"
                }
            ],
            "stateMutability": "view",
            "type": "function"
        },
        {
            "inputs": [],
            "name": "tokenCounter",
            "outputs": [
                {
                    "internalType": "uint256",
                    "name": "",
                    "type": "uint256"
                }
            ],
            "stateMutability": "view",
            "type": "function"
        },
        {
            "inputs": [
                {
                    "internalType": "uint256",
                    "name": "tokenId",
                    "type": "uint256"
                }
            ],
            "name": "tokenURI",
            "outputs": [
                {
                    "internalType": "string",
                    "name": "",
                    "type": "string"
                }
            ],
            "stateMutability": "view",
            "type": "function"
        },
        {
            "inputs": [
                {
                    "internalType": "address",
                    "name": "from",
                    "type": "address"
                },
                {
                    "internalType": "address",
                    "name": "to",
                    "type": "address"
                },
                {
                    "internalType": "uint256",
                    "name": "tokenId",
                    "type": "uint256"
                }
            ],
            "name": "transferFrom",
            "outputs": [],
            "stateMutability": "nonpayable",
            "type": "function"
        },
        {
            "inputs": [
                {
                    "internalType": "address",
                    "name": "newOwner",
                    "type": "address"
                }
            ],
            "name": "transferOwnership",
            "outputs": [],
            "stateMutability": "nonpayable",
            "type": "function"
        }
    ],
    "bytecode": "0x60806040523480156200001157600080fd5b506040518060400160405280600881526020017f45676f546f6b656e0000000000000000000000000000000000000000000000008152506040518060400160405280600381526020017f454754000000000000000000000000000000000000000000000000000000000081525081600090816200008f919062000412565b508060019081620000a1919062000412565b505050620000c4620000b8620000ca60201b60201c565b620000d260201b60201c565b620004f9565b600033905090565b6000600760009054906101000a900473ffffffffffffffffffffffffffffffffffffffff16905081600760006101000a81548173ffffffffffffffffffffffffffffffffffffffff021916908373ffffffffffffffffffffffffffffffffffffffff1602179055508173ffffffffffffffffffffffffffffffffffffffff168173ffffffffffffffffffffffffffffffffffffffff167f8be0079c531659141344cd1fd0a4f28419497f9722a3daafe3b4186f6b6457e060405160405180910390a35050565b600081519050919050565b7f4e487b7100000000000000000000000000000000000000000000000000000000600052604160045260246000fd5b7f4e487b7100000000000000000000000000000000000000000000000000000000600052602260045260246000fd5b600060028204905060018216806200021a57607f821691505b60208210810362000230576200022f620001d2565b5b50919050565b60008190508160005260206000209050919050565b60006020601f8301049050919050565b600082821b905092915050565b6000600883026200029a7fffffffffffffffffffffffffffffffffffffffffffffffffffffffffffffffff826200025b565b620002a686836200025b565b95508019841693508086168417925050509392505050565b6000819050919050565b6000819050919050565b6000620002f3620002ed620002e784620002be565b620002c8565b620002be565b9050919050565b6000819050919050565b6200030f83620002d2565b620003276200031e82620002fa565b84845462000268565b825550505050565b600090565b6200033e6200032f565b6200034b81848462000304565b505050565b5b8181101562000373576200036760008262000334565b60018101905062000351565b5050565b601f821115620003c2576200038c8162000236565b62000397846200024b565b81016020851015620003a7578190505b620003bf620003b6856200024b565b83018262000350565b50505b505050565b600082821c905092915050565b6000620003e760001984600802620003c7565b1980831691505092915050565b6000620004028383620003d4565b9150826002028217905092915050565b6200041d8262000198565b67ffffffffffffffff811115620004395762000438620001a3565b5b62000445825462000201565b6200045282828562000377565b600060209050601f8311600181146200048a576000841562000475578287015190505b620004818582620003f4565b865550620004f1565b601f1984166200049a8662000236565b60005b82811015620004c4578489015182556001820191506020850194506020810190506200049d565b86831015620004e45784890151620004e0601f891682620003d4565b8355505b6001600288020188555050505b505050505050565b612e4b80620005096000396000f3fe608060405234801561001057600080fd5b50600436106101165760003560e01c8063715018a6116100a2578063b88d4fde11610071578063b88d4fde146102cb578063c87b56dd146102e7578063d082e38114610317578063e985e9c514610335578063f2fde38b1461036557610116565b8063715018a6146102695780638da5cb5b1461027357806395d89b4114610291578063a22cb465146102af57610116565b806323b872dd116100e957806323b872dd146101b557806342842e0e146101d15780636352211e146101ed578063695850fb1461021d57806370a082311461023957610116565b806301ffc9a71461011b57806306fdde031461014b578063081812fc14610169578063095ea7b314610199575b600080fd5b61013560048036038101906101309190611c4f565b610381565b6040516101429190611c97565b60405180910390f35b610153610463565b6040516101609190611d42565b60405180910390f35b610183600480360381019061017e9190611d9a565b6104f5565b6040516101909190611e08565b60405180910390f35b6101b360048036038101906101ae9190611e4f565b61053b565b005b6101cf60048036038101906101ca9190611e8f565b610652565b005b6101eb60048036038101906101e69190611e8f565b6106b2565b005b61020760048036038101906102029190611d9a565b6106d2565b6040516102149190611e08565b60405180910390f35b61023760048036038101906102329190612017565b610758565b005b610253600480360381019061024e9190612060565b610788565b604051610260919061209c565b60405180910390f35b61027161083f565b005b61027b610853565b6040516102889190611e08565b60405180910390f35b61029961087d565b6040516102a69190611d42565b60405180910390f35b6102c960048036038101906102c491906120e3565b61090f565b005b6102e560048036038101906102e091906121c4565b610925565b005b61030160048036038101906102fc9190611d9a565b610987565b60405161030e9190611d42565b60405180910390f35b61031f610999565b60405161032c919061209c565b60405180910390f35b61034f600480360381019061034a9190612247565b6109af565b60405161035c9190611c97565b60405180910390f35b61037f600480360381019061037a9190612060565b610a43565b005b60007f80ac58cd000000000000000000000000000000000000000000000000000000007bffffffffffffffffffffffffffffffffffffffffffffffffffffffff1916827bffffffffffffffffffffffffffffffffffffffffffffffffffffffff1916148061044c57507f5b5e139f000000000000000000000000000000000000000000000000000000007bffffffffffffffffffffffffffffffffffffffffffffffffffffffff1916827bffffffffffffffffffffffffffffffffffffffffffffffffffffffff1916145b8061045c575061045b82610ac6565b5b9050919050565b606060008054610472906122b6565b80601f016020809104026020016040519081016040528092919081815260200182805461049e906122b6565b80156104eb5780601f106104c0576101008083540402835291602001916104eb565b820191906000526020600020905b8154815290600101906020018083116104ce57829003601f168201915b5050505050905090565b600061050082610b30565b6004600083815260200190815260200160002060009054906101000a900473ffffffffffffffffffffffffffffffffffffffff169050919050565b6000610546826106d2565b90508073ffffffffffffffffffffffffffffffffffffffff168373ffffffffffffffffffffffffffffffffffffffff16036105b6576040517f08c379a00000000000000000000000000000000000000000000000000000000081526004016105ad90612359565b60405180910390fd5b8073ffffffffffffffffffffffffffffffffffffffff166105d5610b7b565b73ffffffffffffffffffffffffffffffffffffffff1614806106045750610603816105fe610b7b565b6109af565b5b610643576040517f08c379a000000000000000000000000000000000000000000000000000000000815260040161063a906123eb565b60405180910390fd5b61064d8383610b83565b505050565b61066361065d610b7b565b82610c3c565b6106a2576040517f08c379a00000000000000000000000000000000000000000000000000000000081526004016106999061247d565b60405180910390fd5b6106ad838383610cd1565b505050565b6106cd83838360405180602001604052806000815250610925565b505050565b6000806106de83610fca565b9050600073ffffffffffffffffffffffffffffffffffffffff168173ffffffffffffffffffffffffffffffffffffffff160361074f576040517f08c379a0000000000000000000000000000000000000000000000000000000008152600401610746906124e9565b60405180910390fd5b80915050919050565b60006107646008611007565b90506107706008611015565b61077a338261102b565b6107848183611049565b5050565b60008073ffffffffffffffffffffffffffffffffffffffff168273ffffffffffffffffffffffffffffffffffffffff16036107f8576040517f08c379a00000000000000000000000000000000000000000000000000000000081526004016107ef9061257b565b60405180910390fd5b600360008373ffffffffffffffffffffffffffffffffffffffff1673ffffffffffffffffffffffffffffffffffffffff168152602001908152602001600020549050919050565b6108476110b6565b6108516000611134565b565b6000600760009054906101000a900473ffffffffffffffffffffffffffffffffffffffff16905090565b60606001805461088c906122b6565b80601f01602080910402602001604051908101604052809291908181526020018280546108b8906122b6565b80156109055780601f106108da57610100808354040283529160200191610905565b820191906000526020600020905b8154815290600101906020018083116108e857829003601f168201915b5050505050905090565b61092161091a610b7b565b83836111fa565b5050565b610936610930610b7b565b83610c3c565b610975576040517f08c379a000000000000000000000000000000000000000000000000000000000815260040161096c9061247d565b60405180910390fd5b61098184848484611366565b50505050565b6060610992826113c2565b9050919050565b6000806109a66008611007565b90508091505090565b6000600560008473ffffffffffffffffffffffffffffffffffffffff1673ffffffffffffffffffffffffffffffffffffffff16815260200190815260200160002060008373ffffffffffffffffffffffffffffffffffffffff1673ffffffffffffffffffffffffffffffffffffffff16815260200190815260200160002060009054906101000a900460ff16905092915050565b610a4b6110b6565b600073ffffffffffffffffffffffffffffffffffffffff168173ffffffffffffffffffffffffffffffffffffffff1603610aba576040517f08c379a0000000000000000000000000000000000000000000000000000000008152600401610ab19061260d565b60405180910390fd5b610ac381611134565b50565b60007f01ffc9a7000000000000000000000000000000000000000000000000000000007bffffffffffffffffffffffffffffffffffffffffffffffffffffffff1916827bffffffffffffffffffffffffffffffffffffffffffffffffffffffff1916149050919050565b610b39816114d4565b610b78576040517f08c379a0000000000000000000000000000000000000000000000000000000008152600401610b6f906124e9565b60405180910390fd5b50565b600033905090565b816004600083815260200190815260200160002060006101000a81548173ffffffffffffffffffffffffffffffffffffffff021916908373ffffffffffffffffffffffffffffffffffffffff160217905550808273ffffffffffffffffffffffffffffffffffffffff16610bf6836106d2565b73ffffffffffffffffffffffffffffffffffffffff167f8c5be1e5ebec7d5bd14f71427d1e84f3dd0314c0f7b2291e5b200ac8c7c3b92560405160405180910390a45050565b600080610c48836106d2565b90508073ffffffffffffffffffffffffffffffffffffffff168473ffffffffffffffffffffffffffffffffffffffff161480610c8a5750610c8981856109af565b5b80610cc857508373ffffffffffffffffffffffffffffffffffffffff16610cb0846104f5565b73ffffffffffffffffffffffffffffffffffffffff16145b91505092915050565b8273ffffffffffffffffffffffffffffffffffffffff16610cf1826106d2565b73ffffffffffffffffffffffffffffffffffffffff1614610d47576040517f08c379a0000000000000000000000000000000000000000000000000000000008152600401610d3e9061269f565b60405180910390fd5b600073ffffffffffffffffffffffffffffffffffffffff168273ffffffffffffffffffffffffffffffffffffffff1603610db6576040517f08c379a0000000000000000000000000000000000000000000000000000000008152600401610dad90612731565b60405180910390fd5b610dc38383836001611515565b8273ffffffffffffffffffffffffffffffffffffffff16610de3826106d2565b73ffffffffffffffffffffffffffffffffffffffff1614610e39576040517f08c379a0000000000000000000000000000000000000000000000000000000008152600401610e309061269f565b60405180910390fd5b6004600082815260200190815260200160002060006101000a81549073ffffffffffffffffffffffffffffffffffffffff02191690556001600360008573ffffffffffffffffffffffffffffffffffffffff1673ffffffffffffffffffffffffffffffffffffffff168152602001908152602001600020600082825403925050819055506001600360008473ffffffffffffffffffffffffffffffffffffffff1673ffffffffffffffffffffffffffffffffffffffff16815260200190815260200160002060008282540192505081905550816002600083815260200190815260200160002060006101000a81548173ffffffffffffffffffffffffffffffffffffffff021916908373ffffffffffffffffffffffffffffffffffffffff160217905550808273ffffffffffffffffffffffffffffffffffffffff168473ffffffffffffffffffffffffffffffffffffffff167fddf252ad1be2c89b69c2b068fc378daa952ba7f163c4a11628f55a4df523b3ef60405160405180910390a4610fc5838383600161151b565b505050565b60006002600083815260200190815260200160002060009054906101000a900473ffffffffffffffffffffffffffffffffffffffff169050919050565b600081600001549050919050565b6001816000016000828254019250508190555050565b611045828260405180602001604052806000815250611521565b5050565b611052826114d4565b611091576040517f08c379a0000000000000000000000000000000000000000000000000000000008152600401611088906127c3565b60405180910390fd5b806006600084815260200190815260200160002090816110b1919061298f565b505050565b6110be610b7b565b73ffffffffffffffffffffffffffffffffffffffff166110dc610853565b73ffffffffffffffffffffffffffffffffffffffff1614611132576040517f08c379a000000000000000000000000000000000000000000000000000000000815260040161112990612aad565b60405180910390fd5b565b6000600760009054906101000a900473ffffffffffffffffffffffffffffffffffffffff16905081600760006101000a81548173ffffffffffffffffffffffffffffffffffffffff021916908373ffffffffffffffffffffffffffffffffffffffff1602179055508173ffffffffffffffffffffffffffffffffffffffff168173ffffffffffffffffffffffffffffffffffffffff167f8be0079c531659141344cd1fd0a4f28419497f9722a3daafe3b4186f6b6457e060405160405180910390a35050565b8173ffffffffffffffffffffffffffffffffffffffff168373ffffffffffffffffffffffffffffffffffffffff1603611268576040517f08c379a000000000000000000000000000000000000000000000000000000000815260040161125f90612b19565b60405180910390fd5b80600560008573ffffffffffffffffffffffffffffffffffffffff1673ffffffffffffffffffffffffffffffffffffffff16815260200190815260200160002060008473ffffffffffffffffffffffffffffffffffffffff1673ffffffffffffffffffffffffffffffffffffffff16815260200190815260200160002060006101000a81548160ff0219169083151502179055508173ffffffffffffffffffffffffffffffffffffffff168373ffffffffffffffffffffffffffffffffffffffff167f17307eab39ab6107e8899845ad3d59bd9653f200f220920489ca2b5937696c31836040516113599190611c97565b60405180910390a3505050565b611371848484610cd1565b61137d8484848461157c565b6113bc576040517f08c379a00000000000000000000000000000000000000000000000000000000081526004016113b390612bab565b60405180910390fd5b50505050565b60606113cd82610b30565b60006006600084815260200190815260200160002080546113ed906122b6565b80601f0160208091040260200160405190810160405280929190818152602001828054611419906122b6565b80156114665780601f1061143b57610100808354040283529160200191611466565b820191906000526020600020905b81548152906001019060200180831161144957829003601f168201915b505050505090506000611477611703565b9050600081510361148c5781925050506114cf565b6000825111156114c15780826040516020016114a9929190612c07565b604051602081830303815290604052925050506114cf565b6114ca8461171a565b925050505b919050565b60008073ffffffffffffffffffffffffffffffffffffffff166114f683610fca565b73ffffffffffffffffffffffffffffffffffffffff1614159050919050565b50505050565b50505050565b61152b8383611782565b611538600084848461157c565b611577576040517f08c379a000000000000000000000000000000000000000000000000000000000815260040161156e90612bab565b60405180910390fd5b505050565b600061159d8473ffffffffffffffffffffffffffffffffffffffff1661199f565b156116f6578373ffffffffffffffffffffffffffffffffffffffff1663150b7a026115c6610b7b565b8786866040518563ffffffff1660e01b81526004016115e89493929190612c80565b6020604051808303816000875af192505050801561162457506040513d601f19601f820116820180604052508101906116219190612ce1565b60015b6116a6573d8060008114611654576040519150601f19603f3d011682016040523d82523d6000602084013e611659565b606091505b50600081510361169e576040517f08c379a000000000000000000000000000000000000000000000000000000000815260040161169590612bab565b60405180910390fd5b805181602001fd5b63150b7a0260e01b7bffffffffffffffffffffffffffffffffffffffffffffffffffffffff1916817bffffffffffffffffffffffffffffffffffffffffffffffffffffffff1916149150506116fb565b600190505b949350505050565b606060405180602001604052806000815250905090565b606061172582610b30565b600061172f611703565b9050600081511161174f576040518060200160405280600081525061177a565b80611759846119c2565b60405160200161176a929190612c07565b6040516020818303038152906040525b915050919050565b600073ffffffffffffffffffffffffffffffffffffffff168273ffffffffffffffffffffffffffffffffffffffff16036117f1576040517f08c379a00000000000000000000000000000000000000000000000000000000081526004016117e890612d5a565b60405180910390fd5b6117fa816114d4565b1561183a576040517f08c379a000000000000000000000000000000000000000000000000000000000815260040161183190612dc6565b60405180910390fd5b611848600083836001611515565b611851816114d4565b15611891576040517f08c379a000000000000000000000000000000000000000000000000000000000815260040161188890612dc6565b60405180910390fd5b6001600360008473ffffffffffffffffffffffffffffffffffffffff1673ffffffffffffffffffffffffffffffffffffffff16815260200190815260200160002060008282540192505081905550816002600083815260200190815260200160002060006101000a81548173ffffffffffffffffffffffffffffffffffffffff021916908373ffffffffffffffffffffffffffffffffffffffff160217905550808273ffffffffffffffffffffffffffffffffffffffff16600073ffffffffffffffffffffffffffffffffffffffff167fddf252ad1be2c89b69c2b068fc378daa952ba7f163c4a11628f55a4df523b3ef60405160405180910390a461199b60008383600161151b565b5050565b6000808273ffffffffffffffffffffffffffffffffffffffff163b119050919050565b6060600060016119d184611a90565b01905060008167ffffffffffffffff8111156119f0576119ef611eec565b5b6040519080825280601f01601f191660200182016040528015611a225781602001600182028036833780820191505090505b509050600082602001820190505b600115611a85578080600190039150507f3031323334353637383961626364656600000000000000000000000000000000600a86061a8153600a8581611a7957611a78612de6565b5b04945060008503611a30575b819350505050919050565b600080600090507a184f03e93ff9f4daa797ed6e38ed64bf6a1f0100000000000000008310611aee577a184f03e93ff9f4daa797ed6e38ed64bf6a1f0100000000000000008381611ae457611ae3612de6565b5b0492506040810190505b6d04ee2d6d415b85acef81000000008310611b2b576d04ee2d6d415b85acef81000000008381611b2157611b20612de6565b5b0492506020810190505b662386f26fc100008310611b5a57662386f26fc100008381611b5057611b4f612de6565b5b0492506010810190505b6305f5e1008310611b83576305f5e1008381611b7957611b78612de6565b5b0492506008810190505b6127108310611ba8576127108381611b9e57611b9d612de6565b5b0492506004810190505b60648310611bcb5760648381611bc157611bc0612de6565b5b0492506002810190505b600a8310611bda576001810190505b80915050919050565b6000604051905090565b600080fd5b600080fd5b60007fffffffff0000000000000000000000000000000000000000000000000000000082169050919050565b611c2c81611bf7565b8114611c3757600080fd5b50565b600081359050611c4981611c23565b92915050565b600060208284031215611c6557611c64611bed565b5b6000611c7384828501611c3a565b91505092915050565b60008115159050919050565b611c9181611c7c565b82525050565b6000602082019050611cac6000830184611c88565b92915050565b600081519050919050565b600082825260208201905092915050565b60005b83811015611cec578082015181840152602081019050611cd1565b60008484015250505050565b6000601f19601f8301169050919050565b6000611d1482611cb2565b611d1e8185611cbd565b9350611d2e818560208601611cce565b611d3781611cf8565b840191505092915050565b60006020820190508181036000830152611d5c8184611d09565b905092915050565b6000819050919050565b611d7781611d64565b8114611d8257600080fd5b50565b600081359050611d9481611d6e565b92915050565b600060208284031215611db057611daf611bed565b5b6000611dbe84828501611d85565b91505092915050565b600073ffffffffffffffffffffffffffffffffffffffff82169050919050565b6000611df282611dc7565b9050919050565b611e0281611de7565b82525050565b6000602082019050611e1d6000830184611df9565b92915050565b611e2c81611de7565b8114611e3757600080fd5b50565b600081359050611e4981611e23565b92915050565b60008060408385031215611e6657611e65611bed565b5b6000611e7485828601611e3a565b9250506020611e8585828601611d85565b9150509250929050565b600080600060608486031215611ea857611ea7611bed565b5b6000611eb686828701611e3a565b9350506020611ec786828701611e3a565b9250506040611ed886828701611d85565b9150509250925092565b600080fd5b600080fd5b7f4e487b7100000000000000000000000000000000000000000000000000000000600052604160045260246000fd5b611f2482611cf8565b810181811067ffffffffffffffff82111715611f4357611f42611eec565b5b80604052505050565b6000611f56611be3565b9050611f628282611f1b565b919050565b600067ffffffffffffffff821115611f8257611f81611eec565b5b611f8b82611cf8565b9050602081019050919050565b82818337600083830152505050565b6000611fba611fb584611f67565b611f4c565b905082815260208101848484011115611fd657611fd5611ee7565b5b611fe1848285611f98565b509392505050565b600082601f830112611ffe57611ffd611ee2565b5b813561200e848260208601611fa7565b91505092915050565b60006020828403121561202d5761202c611bed565b5b600082013567ffffffffffffffff81111561204b5761204a611bf2565b5b61205784828501611fe9565b91505092915050565b60006020828403121561207657612075611bed565b5b600061208484828501611e3a565b91505092915050565b61209681611d64565b82525050565b60006020820190506120b1600083018461208d565b92915050565b6120c081611c7c565b81146120cb57600080fd5b50565b6000813590506120dd816120b7565b92915050565b600080604083850312156120fa576120f9611bed565b5b600061210885828601611e3a565b9250506020612119858286016120ce565b9150509250929050565b600067ffffffffffffffff82111561213e5761213d611eec565b5b61214782611cf8565b9050602081019050919050565b600061216761216284612123565b611f4c565b90508281526020810184848401111561218357612182611ee7565b5b61218e848285611f98565b509392505050565b600082601f8301126121ab576121aa611ee2565b5b81356121bb848260208601612154565b91505092915050565b600080600080608085870312156121de576121dd611bed565b5b60006121ec87828801611e3a565b94505060206121fd87828801611e3a565b935050604061220e87828801611d85565b925050606085013567ffffffffffffffff81111561222f5761222e611bf2565b5b61223b87828801612196565b91505092959194509250565b6000806040838503121561225e5761225d611bed565b5b600061226c85828601611e3a565b925050602061227d85828601611e3a565b9150509250929050565b7f4e487b7100000000000000000000000000000000000000000000000000000000600052602260045260246000fd5b600060028204905060018216806122ce57607f821691505b6020821081036122e1576122e0612287565b5b50919050565b7f4552433732313a20617070726f76616c20746f2063757272656e74206f776e6560008201527f7200000000000000000000000000000000000000000000000000000000000000602082015250565b6000612343602183611cbd565b915061234e826122e7565b604082019050919050565b6000602082019050818103600083015261237281612336565b9050919050565b7f4552433732313a20617070726f76652063616c6c6572206973206e6f7420746f60008201527f6b656e206f776e6572206f7220617070726f76656420666f7220616c6c000000602082015250565b60006123d5603d83611cbd565b91506123e082612379565b604082019050919050565b60006020820190508181036000830152612404816123c8565b9050919050565b7f4552433732313a2063616c6c6572206973206e6f7420746f6b656e206f776e6560008201527f72206f7220617070726f76656400000000000000000000000000000000000000602082015250565b6000612467602d83611cbd565b91506124728261240b565b604082019050919050565b600060208201905081810360008301526124968161245a565b9050919050565b7f4552433732313a20696e76616c696420746f6b656e2049440000000000000000600082015250565b60006124d3601883611cbd565b91506124de8261249d565b602082019050919050565b60006020820190508181036000830152612502816124c6565b9050919050565b7f4552433732313a2061646472657373207a65726f206973206e6f74206120766160008201527f6c6964206f776e65720000000000000000000000000000000000000000000000602082015250565b6000612565602983611cbd565b915061257082612509565b604082019050919050565b6000602082019050818103600083015261259481612558565b9050919050565b7f4f776e61626c653a206e6577206f776e657220697320746865207a65726f206160008201527f6464726573730000000000000000000000000000000000000000000000000000602082015250565b60006125f7602683611cbd565b91506126028261259b565b604082019050919050565b60006020820190508181036000830152612626816125ea565b9050919050565b7f4552433732313a207472616e736665722066726f6d20696e636f72726563742060008201527f6f776e6572000000000000000000000000000000000000000000000000000000602082015250565b6000612689602583611cbd565b91506126948261262d565b604082019050919050565b600060208201905081810360008301526126b88161267c565b9050919050565b7f4552433732313a207472616e7366657220746f20746865207a65726f2061646460008201527f7265737300000000000000000000000000000000000000000000000000000000602082015250565b600061271b602483611cbd565b9150612726826126bf565b604082019050919050565b6000602082019050818103600083015261274a8161270e565b9050919050565b7f45524337323155524953746f726167653a2055524920736574206f66206e6f6e60008201527f6578697374656e7420746f6b656e000000000000000000000000000000000000602082015250565b60006127ad602e83611cbd565b91506127b882612751565b604082019050919050565b600060208201905081810360008301526127dc816127a0565b9050919050565b60008190508160005260206000209050919050565b60006020601f8301049050919050565b600082821b905092915050565b6000600883026128457fffffffffffffffffffffffffffffffffffffffffffffffffffffffffffffffff82612808565b61284f8683612808565b95508019841693508086168417925050509392505050565b6000819050919050565b600061288c61288761288284611d64565b612867565b611d64565b9050919050565b6000819050919050565b6128a683612871565b6128ba6128b282612893565b848454612815565b825550505050565b600090565b6128cf6128c2565b6128da81848461289d565b505050565b5b818110156128fe576128f36000826128c7565b6001810190506128e0565b5050565b601f82111561294357612914816127e3565b61291d846127f8565b8101602085101561292c578190505b612940612938856127f8565b8301826128df565b50505b505050565b600082821c905092915050565b600061296660001984600802612948565b1980831691505092915050565b600061297f8383612955565b9150826002028217905092915050565b61299882611cb2565b67ffffffffffffffff8111156129b1576129b0611eec565b5b6129bb82546122b6565b6129c6828285612902565b600060209050601f8311600181146129f957600084156129e7578287015190505b6129f18582612973565b865550612a59565b601f198416612a07866127e3565b60005b82811015612a2f57848901518255600182019150602085019450602081019050612a0a565b86831015612a4c5784890151612a48601f891682612955565b8355505b6001600288020188555050505b505050505050565b7f4f776e61626c653a2063616c6c6572206973206e6f7420746865206f776e6572600082015250565b6000612a97602083611cbd565b9150612aa282612a61565b602082019050919050565b60006020820190508181036000830152612ac681612a8a565b9050919050565b7f4552433732313a20617070726f766520746f2063616c6c657200000000000000600082015250565b6000612b03601983611cbd565b9150612b0e82612acd565b602082019050919050565b60006020820190508181036000830152612b3281612af6565b9050919050565b7f4552433732313a207472616e7366657220746f206e6f6e20455243373231526560008201527f63656976657220696d706c656d656e7465720000000000000000000000000000602082015250565b6000612b95603283611cbd565b9150612ba082612b39565b604082019050919050565b60006020820190508181036000830152612bc481612b88565b9050919050565b600081905092915050565b6000612be182611cb2565b612beb8185612bcb565b9350612bfb818560208601611cce565b80840191505092915050565b6000612c138285612bd6565b9150612c1f8284612bd6565b91508190509392505050565b600081519050919050565b600082825260208201905092915050565b6000612c5282612c2b565b612c5c8185612c36565b9350612c6c818560208601611cce565b612c7581611cf8565b840191505092915050565b6000608082019050612c956000830187611df9565b612ca26020830186611df9565b612caf604083018561208d565b8181036060830152612cc18184612c47565b905095945050505050565b600081519050612cdb81611c23565b92915050565b600060208284031215612cf757612cf6611bed565b5b6000612d0584828501612ccc565b91505092915050565b7f4552433732313a206d696e7420746f20746865207a65726f2061646472657373600082015250565b6000612d44602083611cbd565b9150612d4f82612d0e565b602082019050919050565b60006020820190508181036000830152612d7381612d37565b9050919050565b7f4552433732313a20746f6b656e20616c7265616479206d696e74656400000000600082015250565b6000612db0601c83611cbd565b9150612dbb82612d7a565b602082019050919050565b60006020820190508181036000830152612ddf81612da3565b9050919050565b7f4e487b7100000000000000000000000000000000000000000000000000000000600052601260045260246000fdfea2646970667358221220a5a09f2999cc07e956166e42bd76a50d26ac44a4a0ba1db8c166f6c4dc7afdd064736f6c63430008110033",
    "linkReferences": {},
    "deployedLinkReferences": {}
}